:100000000C9462000C94A3040C947C040C948A005D
:100010000C948A000C948A000C948A000C948A0038
:100020000C948A000C948A000C948A000C948A0028
:100030000C948A000C948A000C948A000C948A0018
:100040000C9432040C948A000C9400040C94DA038F
:100050000C948A000C948A000C948A000C948A00F8
:100060000C948A000C948A000000000024002700F1
:100070002A0000000000250028002B0000000000DE
:1000800023002600290004040404040404040202DA
:100090000202020203030303030301020408102007
:1000A0004080010204081020010204081020000012
:1000B0000008000201000003040700000000000027
:1000C0000000CA0411241FBECFEFD8E0DEBFCDBFB1
:1000D00011E0A0E0B1E0EAE0F2E102C005900D928B
:1000E000AC32B107D9F722E0ACE2B1E001C01D9219
:1000F000A231B207E1F710E0C2E6D0E004C02197D8
:10010000FE010E94F808C136D107C9F70E943B05DD
:100110000C9403090C9400004F925F926F927F92AF
:100120008F929F92AF92BF92CF92DF92EF92FF9207
:10013000CF93DF9300D000D0CDB7DEB76B017C0149
:1001400049015A012091F6013091F7014091F801DF
:100150005091F9010E948B0869837A838B839C8379
:100160002091E6013091E7014091E8015091E901C9
:10017000C701B6010E942D076B017C016093E60167
:100180007093E7018093E8019093E9014090EA01C0
:100190005090EB016090EC017090ED01A301920191
:1001A0000E948608181684F04090EE015090EF01EE
:1001B0006090F0017090F101A3019201C701B601B6
:1001C0000E94990787FF08C04092E6015092E7011C
:1001D0006092E8017092E9012091E6013091E70117
:1001E0004091E8015091E9016091F2017091F301B1
:1001F0008091F4019091F5010E948B086B017C01C4
:10020000A50194016091E2017091E3018091E40104
:100210009091E5010E942C072091FA013091FB0199
:100220004091FC015091FD010E948B089B01AC01A3
:100230008092E2019092E301A092E401B092E50184
:1002400069817A818B819C810E942D07A70196018B
:100250000E942D076B017C0120E030E04FE753E462
:100260000E94860818162CF480E090E0AFE7B3E413
:1002700017C020E030E04FE753ECC701B6010E9401
:10028000990787FD09C0C092FE01D092FF01E0925C
:100290000002F09201020CC080E090E0AFE7B3EC06
:1002A0008093FE019093FF01A0930002B09301029E
:1002B0000F900F900F900F90DF91CF91FF90EF90E4
:1002C000DF90CF90BF90AF909F908F907F906F9076
:1002D0005F904F900895CF92DF92EF92FF920F932D
:1002E0001F93CF93DF936C017A018B01C0E0D0E0C4
:1002F000CE15DF0589F0D8016D918D01D601ED9104
:10030000FC910190F081E02DC6010995892B11F433
:100310007E0102C02196ECCFC701DF91CF911F91E2
:100320000F91FF90EF90DF90CF900895089580E0B7
:1003300090E00895FC01538D448D252F30E0842FEB
:1003400090E0821B930B541710F0CF9608950197FD
:100350000895FC01918D828D981761F0828DDF01E7
:10036000A80FB11D5D968C91928D9F5F9F73928FA8
:1003700090E008958FEF9FEF0895FC01918D828D9D
:10038000981731F0828DE80FF11D858D90E008956A
:100390008FEF9FEF0895FC01918D228D892F90E0C2
:1003A000805C9F4F821B91098F739927089587E383
:1003B00091E00E94CB0121E0892B09F420E0822FFB
:1003C0000895FC01848DDF01A80FB11DA35ABF4F12
:1003D0002C91848D90E001968F739927848FA68944
:1003E000B7892C93A089B1898C9180648C93938D6B
:1003F000848D981306C00288F389E02D80818F7D5B
:1004000080830895EF92FF920F931F93CF93DF9312
:10041000EC0181E0888F9B8D8C8D981305C0E88955
:10042000F989808185FD24C0F62E0B8D10E00F5FC9
:100430001F4F0F731127E02E8C8DE8120CC00FB6E2
:1004400007FCFACFE889F989808185FFF5CFCE01D5
:100450000E94E101F1CF8B8DFE01E80FF11DE35AFF
:10046000FF4FF0820B8FEA89FB898081806207C091
:10047000EE89FF896083E889F989808180648083BF
:1004800081E090E0DF91CF911F910F91FF90EF906D
:100490000895CF93DF93EC01888D8823C9F0EA8912
:1004A000FB89808185FD05C0A889B9898C9186FD6D
:1004B0000FC00FB607FCF5CF808185FFF2CFA8896A
:1004C000B9898C9185FFEDCFCE010E94E101E7CF84
:1004D000DF91CF91089580E090E0892B29F00E9470
:1004E000D70181110C9400000895833081F028F425
:1004F000813099F08230A1F008958730A9F08830DA
:10050000B9F08430D1F4809180008F7D03C0809158
:1005100080008F7780938000089584B58F7702C024
:1005200084B58F7D84BD08958091B0008F7703C01E
:100530008091B0008F7D8093B0000895CF93DF93BA
:10054000282F30E0F901E255FF4F8491F901E6567A
:10055000FF4FD491F901EA57FF4FC491CC2391F09A
:1005600081110E947502EC2FF0E0EE0FFF1FE4589E
:10057000FF4FA591B491EC91ED2381E090E021F43F
:1005800080E002C080E090E0DF91CF9108951F935A
:10059000CF93DF93282F30E0F901E255FF4F84918C
:1005A000F901E656FF4FD491F901EA57FF4FC49184
:1005B000CC23C9F0162F81110E947502EC2FF0E0B8
:1005C000EE0FFF1FEE58FF4FA591B4918FB7F8942F
:1005D000111105C09C91ED2FE095E92302C0EC912B
:1005E000ED2BEC938FBFDF91CF911F910895CF93A7
:1005F000DF9390E0FC01E656FF4F2491FC01EA579F
:10060000FF4F8491882361F190E0880F991FFC01CE
:10061000E859FF4FC591D491FC01EE58FF4FA591C9
:10062000B491611109C09FB7F89488812095822305
:100630008883EC912E230BC0623061F49FB7F8944D
:100640003881822F809583238883EC912E2B2C93E5
:100650009FBF06C08FB7F894E8812E2B28838FBFE9
:10066000DF91CF910895CF93DF93EC0161E08AE0B1
:100670000E94F702209711F460E004C0CF3FD1053B
:1006800031F461E08AE0DF91CF910C94C702E8EB8E
:10069000F0E0E491E330F9F048F4E130B9F0E23011
:1006A000A1F584B5806284BDC8BD34C0E730E9F0EF
:1006B000E83019F1E43049F5809180008062809340
:1006C0008000D0938B00C0938A0024C084B58068DA
:1006D00084BDC7BD1FC0809180008068809380006A
:1006E000D0938900C093880015C08091B0008068C5
:1006F0008093B000C093B3000DC08091B0008062C1
:100700008093B000C093B40005C0C038D1050CF090
:10071000B8CFB2CFDF91CF9108950E94330361E04B
:1007200088E00E94C70260E089E00C94C7020E9442
:10073000330360E088E00E94C70261E089E00C9426
:10074000C70280E090E00E94330360E088E00E94EE
:10075000C70260E089E00C94C7022FB7F89460915B
:1007600031017091320180913301909134012FBF9A
:1007700008950895CF93DF9382E00E949E02EC01DA
:1007800083E00E949E02C817D90731F48091350199
:1007900090913601019605C0809135019091360106
:1007A00001979093360180933501DF91CF910895A1
:1007B0000E94FE081F920F920FB60F9211242F93E2
:1007C0003F934F935F936F937F938F939F93AF93D9
:1007D000BF93EF93FF9387E391E00E94E101FF91C4
:1007E000EF91BF91AF919F918F917F916F915F91A9
:1007F0004F913F912F910F900FBE0F901F90189522
:100800001F920F920FB60F9211242F938F939F93E5
:10081000EF93FF93E0914701F09148018081E091CF
:100820004D01F0914E0182FD12C0908180915001E6
:100830008F5F8F7320915101821751F0E091500129
:10084000F0E0E95CFE4F958F8093500101C08081FC
:10085000FF91EF919F918F912F910F900FBE0F906D
:100860001F9018951F920F920FB60F9211242F937D
:100870003F938F939F93AF93BF938091310190915A
:100880003201A0913301B09134013091300123E065
:10089000230F2D3720F40196A11DB11D05C026E8B8
:1008A000230F0296A11DB11D2093300180933101C9
:1008B00090933201A0933301B093340180912C01C5
:1008C00090912D01A0912E01B0912F010196A11DB3
:1008D000B11D80932C0190932D01A0932E01B09314
:1008E0002F01BF91AF919F918F913F912F910F90C9
:1008F0000FBE0F901F9018951F920F920FB60F9278
:1009000011242F933F934F935F936F937F938F9314
:100910009F93AF93BF93EF93FF93E0910201F09108
:1009200003010995FF91EF91BF91AF919F918F9135
:100930007F916F915F914F913F912F910F900FBEDB
:100940000F901F9018951F920F920FB60F921124BF
:100950002F933F934F935F936F937F938F939F93C7
:10096000AF93BF93EF93FF93E0910001F0910101EA
:100970000995FF91EF91BF91AF919F918F917F91D9
:100980006F915F914F913F912F910F900FBE0F90FC
:100990001F901895E7E3F1E01382128288EE93E04E
:1009A000A0E0B0E084839583A683B78388E091E0DC
:1009B0009183808385EC90E09587848784EC90E038
:1009C0009787868780EC90E0918B808B81EC90E01C
:1009D000938B828B82EC90E0958B848B86EC90E0FD
:1009E000978B868B118E128E138E148EE4EDF1E0B0
:1009F0001382128281E090E09583848383E090E00B
:100A00009387828785E090E095878487E2EEF1E026
:100A100040E050E060EC70E4408B518B628B738B54
:100A200040E050E060E572E4448B558B668B778B39
:100A300040E050E066E973E4408F518F628F738F1E
:100A400040E050E06FE773E4448F558F668F778FF7
:100A5000E2E0F2E017821682118610869387828781
:100A60000E94AD0360930E0270930F0280931002F8
:100A7000909311020895CF93DF9300D000D0CDB7AB
:100A8000DEB7789484B5826084BD84B5816084BD0E
:100A900085B5826085BD85B5816085BD80916E001C
:100AA000816080936E00109281008091810082604D
:100AB000809381008091810081608093810080918A
:100AC00080008160809380008091B1008460809379
:100AD000B1008091B00081608093B00080917A0075
:100AE000846080937A0080917A00826080937A009B
:100AF00080917A00816080937A0080917A0080688A
:100B000080937A001092C10060E084E00E94F702B6
:100B100060E085E00E94F70260E086E00E94F70254
:100B200060E082E00E94F70260E083E00E94F7024A
:100B300060E088E00E94F70260E08AE00E94F7022D
:100B400060E089E00E94F7028AEB93E09093010154
:100B500080930001809169008C7F8160809369009F
:100B6000E89AE0914701F091480182E08083E091AA
:100B70004301F09144011082E0914501F09146015A
:100B80008FEC808310924F01E0914B01F0914C016A
:100B900086E08083E0914901F0914A018081806183
:100BA0008083E0914901F0914A01808188608083CF
:100BB000E0914901F0914A01808180688083E09151
:100BC0004901F0914A0180818F7D808342E150E0AC
:100BD00066E171E087E391E00E946B0142E050E042
:100BE00069E271E087E391E00E946B01812C912C16
:100BF0008FE7A82E83E4B82E92E0E92EF12C0E9414
:100C0000AD0300910E0210910F022091100230915D
:100C10001102DC01CB01801B910BA20BB30B0297DD
:100C2000A105B10508F415C184E00E949E0281303F
:100C3000910529F49093DF018093DE0109C085E0DE
:100C40000E949E02019789F4F092DF01E092DE019A
:100C50001092D7011092D601809135019091360102
:100C60009093DB018093DA0119C086E00E949E0216
:100C70000197A1F41092DF011092DE011092D701CA
:100C80001092D6018092FE019092FF01A092000284
:100C9000B092010210923601109235010091350197
:100CA000109136011093D5010093D4018091DE019B
:100CB0009091DF0181309105A9F084F4892B09F02E
:100CC000BCC08FEF90E00E94330361E088E00E9497
:100CD000C70261E089E00E94C702B1C0029709F033
:100CE000ACC02DC08091D6019091D7012091E00138
:100CF0003091E101829F3001839F700C929F700CB4
:100D000011242091DA013091DB01620E731E709282
:100D1000DD016092DC018F35910574F52091D801D9
:100D20003091D901A301421B530B04171507F4F1AD
:100D3000260D371D20173107CCF1019632C0809166
:100D4000D6019091D7012091E0013091E101829F7D
:100D50003001839F700C929F700C11242091DA0156
:100D60003091DB01620E731E7092DD016092DC0136
:100D7000823A2FEF92072CF41092DF011092DE01DD
:100D80005EC02091D8013091D901A301421B530BC1
:100D9000041715075CF0260D371D2017310734F0B6
:100DA00001979093D7018093D60149C0B801012ED5
:100DB000000C880B990B0E94D6079B01AC01B30174
:100DC000601B710B072E000C880B990B29833A834B
:100DD0004B835C830E94D60729813A814B815C81D9
:100DE0000E948C004090FE015090FF016090000234
:100DF0007090010220E030E0A901C301B2010E941D
:100E0000860887FD08C0C301B2010E949E07CB017E
:100E10000E94970314C020E030E0A901C301B20191
:100E20000E94990787FF0BC0C301B20190580E942E
:100E30009E07CB010E948D0302C00E94A1030E9465
:100E4000AD0360930E0270930F0280931002909393
:100E500011020E946B02D3CE5058BB27AA270E94D2
:100E600044070C944C080E943E0838F00E94450844
:100E700020F039F49F3F19F426F40C943B080EF44B
:100E8000E095E7FB0C943508E92F0E945D0858F3C4
:100E9000BA17620773078407950720F079F4A6F55F
:100EA0000C947F080EF4E0950B2EBA2FA02D0B01A9
:100EB000B90190010C01CA01A0011124FF27591B9F
:100EC00099F0593F50F4503E68F11A16F040A22FA5
:100ED000232F342F4427585FF3CF46953795279516
:100EE000A795F0405395C9F77EF41F16BA0B620B15
:100EF000730B840BBAF09150A1F0FF0FBB1F661F5C
:100F0000771F881FC2F70EC0BA0F621F731F841F9E
:100F100048F4879577956795B795F7959E3F08F0C4
:100F2000B0CF9395880F08F09927EE0F9795879586
:100F300008950E94110808F481E008950E94A50711
:100F40006894B1110C94800808950E94650888F097
:100F50009F5798F0B92F9927B751B0F0E1F0660F7D
:100F6000771F881F991F1AF0BA95C9F714C0B130BE
:100F700091F00E947F08B1E008950C947F08672FDC
:100F8000782F8827B85F39F0B93FCCF386957795ED
:100F90006795B395D9F73EF49095809570956195D6
:100FA0007F4F8F4F9F4F0895E89409C097FB3EF401
:100FB00090958095709561957F4F8F4F9F4F9923A6
:100FC000A9F0F92F96E9BB279395F6958795779524
:100FD0006795B795F111F8CFFAF4BB0F11F460FFE4
:100FE0001BC06F5F7F4F8F4F9F4F16C0882311F03C
:100FF00096E911C0772321F09EE8872F762F05C050
:10100000662371F096E8862F70E060E02AF09A95EA
:10101000660F771F881FDAF7880F9695879597F9DF
:101020000895990F0008550FAA0BE0E8FEEF161679
:101030001706E807F907C0F012161306E407F507CC
:1010400098F0621B730B840B950B39F40A2661F040
:10105000232B242B252B21F408950A2609F4A140E3
:10106000A6958FEF811D811D089597F99F6780E8F0
:1010700070E060E008959FEF80EC089500240A94EA
:101080001616170618060906089500240A94121663
:101090001306140605060895092E0394000C11F496
:1010A000882352F0BB0F40F4BF2B11F460FF04C043
:1010B0006F5F7F4F8F4F9F4F089557FD9058440F9C
:1010C000551F59F05F3F71F04795880F97FB991FA7
:1010D00061F09F3F79F08795089512161306140664
:1010E000551FF2CF4695F1DF08C0161617061806F1
:1010F000991FF1CF86957105610508940895E894CC
:10110000BB2766277727CB0197F908950E9411081E
:1011100008F48FEF08950E949E080C944C080E94DA
:101120003E0838F00E94450820F0952311F00C94F9
:1011300035080C943B0811240C9480080E945D082B
:1011400070F3959FC1F3950F50E0551F629FF0011A
:10115000729FBB27F00DB11D639FAA27F00DB11D33
:10116000AA1F649F6627B00DA11D661F829F2227BC
:10117000B00DA11D621F739FB00DA11D621F839F43
:10118000A00D611D221F749F3327A00D611D231F19
:10119000849F600D211D822F762F6A2F11249F5767
:1011A00050409AF0F1F088234AF0EE0FFF1FBB1F6A
:1011B000661F771F881F91505040A9F79E3F510529
:1011C00080F00C9435080C9480085F3FE4F3983E5F
:1011D000D4F3869577956795B795F795E7959F5FD3
:1011E000C1F7FE2B880F911D9695879597F9089565
:1011F000EE0FFF1F0590F491E02D099481E090E03F
:0A120000F8940C940309F894FFCF52
:10120A00B903B9030000000002026B019A01490206
:10121A00CB01A901BD013C41726475696E6F2069F9
:0C122A00732072656164793E000D0A00BB
:00000001FF
